:02000000EC29E9
:10000800FF00030E8301A7000A08A8008A017B08E5
:10001800A2007C08A1007D08A000061C41288B1CBA
:1000280041288B10081D2C28081108148810081660
:10003800881288111F30FB007130FC001E30FD0053
:10004800FD0B2428FC0B2428FB0B24280000412846
:10005800881D41288811881608128814081108106C
:100068001F30FB007130FC001E30FD00FD0B3A28EC
:10007800FC0B3A28FB0B3A2800002208FB00210859
:10008800FC002008FD0028088A00270E8300FF0EC8
:040098007F0E0900CE
:10009C00710DF80DF90D7408F8027508031C750F35
:1000AC00F902F00DF10D0F30FC00710DF80DF90D8A
:1000BC007408701C6728F8027508031C750FF90288
:1000CC006C28F80775080318750FF907F00DF10D7A
:1000DC00FC0B5B28701878287408F807750803184F
:0800EC00750FF9070000080080
:1000F400831203137408003A031D89287508003A13
:10010400031D8928FF30F0007F30F100E2288312BC
:100114000313FD01F901F801710870040319003497
:1001240071087506FA00FA1BFD09FB01F51F9F28EB
:10013400F409F509F40A0319F50AF11FA628F009D0
:10014400F109F00A0319F10A71087504FA00FA1B9F
:10015400BB284E207B18CE28FD1F0034F009F1097E
:10016400F00A0319F10AF809F909F80A0319F90A56
:100174000034F51FCA28F11BC6287108F90070085D
:10018400F800F101F001AE28F101F001F00A0034A9
:10019400F109F009FB0AAB28F80A0319F90A7408F3
:1001A4007802031DAE2875087902031DAE28F901F3
:1001B400F801F00A0319F10AF11FAE280000FF3418
:0201C400080031
:0E01C6008312031326088A0025088200080011
:1001D40083120313061CFA28881408100811081245
:1001E40088158812861406158615061687010529B2
:1001F4008810081008150816881188128614061528
:080204008615061687010800AB
:10020C00E3208A110A128000840AA50A0319A60A9F
:08021C00F003031D0629080090
:1002240083120313851CEB290F30A3000030A400B4
:100234008030F000803024067002031D2329230837
:10024400003C0318802986140615861506160A3004
:10025400F4000030F5002308F0002408F1007A20AF
:100264007808F0007908F1007008A9007108AA0064
:100274000A30F4000030F5002308F0002408F100EF
:100284007A200430F3007008F200730803194E2931
:10029400F20D7210FF3E482972082907870080304A
:1002A400F000803024067002031D5A292308033C01
:1002B4000318632908148815881208120811881075
:1002C400692908160814081188108811881205185D
:1002D4006D29870180290B30FB002630FC005D303E
:1002E400FD00FD0B7329FC0B7329FB0B7329000024
:1002F40000000130A302031CA4031A291730A30031
:100304000030A4008030F000803024067002031D09
:100314008D292308003C0318EA290518932987012D
:10032400EA290A30F4000030F5002308F00024081C
:10033400F1007A207808F0007908F1007008A9002B
:100344007108AA000A30F4000030F5002308F00018
:100354002408F1007A200430F3007008F2007308D6
:100364000319B829F20D7210FF3EB2297208290749
:10037400870086140615861506168030F000803036
:1003840024067002031DC8292308033C0318D1293D
:10039400081588160812881188100810D72988149F
:1003A400881608110810081288110B30FB0026303B
:1003B400FC005D30FD00FD0BDD29FC0BDD29FB0B92
:1003C400DD29000000000130A302031CA4038429DA
:0403D40012290800E2
:1003D80083120313A301A401073083169F003F3043
:1003E80085000130860087018801831288013B302F
:1003F80085008701013086008B170B1683160113C1
:100408008312051C082A042A851C0C2A12210F2A8B
:0A041800061C0F2AEA20082A102A09
:02400E004A2F37
:00000001FF
